:100000000C946A010C949B010C949B010C949B0131
:100010000C949B010C949B010C949B010C949B01F0
:100020000C949B010C94730F0C94730F0C94730F2E
:100030000C949B010C949B010C949B010C949B01D0
:100040000C949B010C949B010C949B010C949B01C0
:100050000C949B010C949B010C949B010C94090E35
:100060000C949B010C94D30D0C94A90D0C949B0142
:100070000C949B010C949B010C949B010C949B0190
:100080000C949B010C949B010C949B010C949B0180
:100090000C949B010C949B010C949B010C94530EAB
:1000A0000C949B010C949B010C949B010C949B0160
:1000B0000C949B010C949B010C949B010C949B0150
:1000C0000C949B010C949B010C949B010C949B0140
:1000D0000C949B010C949B010C949B010C949B0130
:1000E0000C949B010C9476020C94010C0C948D0BD7
:1000F0000C94400A0C943A040C94E7030C943C0AC8
:100100000C943D0A0C9451050C947A050C94080447
:100110000C94E3030C94F6050C94F5030C94ED0396
:100120000C94DD030C94C6020C943A0C0C94AB04B2
:100130000C9436170C9475050C94430A0C94EF0F2D
:100140000C94190C0C94CE030C94D6030C94FB0362
:100150000C940C030C94DA030C94770A0C94ED07BE
:100160000C94FF030C9403040C9477050C9409047D
:100170000C94A50B0C944A0A0C94F5050C94D4022B
:100180000C94A90C0C94D2030C946B040C9459039A
:100190000C94B2020C94F1030C94C8030C94A302C7
:1001A0000C945F050C9450080C940D040C9470058D
:1001B00000002100240027002A002D003000330019
:1001C00001010000040107010A0100000A0B0209F5
:1001D0000C0D0E08070304010000000000000000E1
:1001E000000000000000000000000000000000000F
:1001F00000000000000012111000000000000000CC
:1002000000000000000000000000000000000000EE
:10021000000020002300260029002C002F003200BF
:100220000001000003010601090100002200250071
:1002300028002B002E0031003400020100000501CF
:1002400008010B0105050505070508080808020255
:1002500002020A0A08080404040401010101010160
:1002600001010303030303030303040707070C0C43
:100270000C0C0C0C0C0C020202020606060606060A
:1002800006060B0B0B0B0B0B0B0B010210202008AF
:1002900008102040102040800201020108040201E1
:1002A0000102040810204080804020100804020150
:1002B00080040201804020100804020108040201A9
:1002C0000102040810204080010204081020408030
:1002D000EF0F361711241FBECFEFD1E2DEBFCDBF27
:1002E00000E00CBF26E0ACE1B4E001C01D92A139F2
:1002F000B207E1F714E0A0E0B2E0EAE2F4E300E0E4
:100300000BBF02C007900D92AC31B107D9F711E0D5
:10031000C9E6D1E000E006C021970109802FFE0167
:100320000E94B217C836D10780E00807A9F70E94DB
:100330005D110C94031A0C940000DF92EF92FF926F
:100340000F931F93CF93DF93EC01809168069091F8
:1003500069066981DC01ED91FC910190F081E02D4D
:1003600019958091680690916906DC01ED91FC91E8
:100370000190F081E02D6881199580916806909137
:100380006906DC01ED91FC910190F081E02D6A811C
:1003900019958091680690916906DC01ED91FC91B8
:1003A0000190F081E02D6B81199580916806909104
:1003B0006906DC01ED91FC910190F081E02D6C81EA
:1003C00019958091680690916906DC01ED91FC9188
:1003D0000190F081E02D6D811995809168069091D2
:1003E0006906DC01ED91FC910190F081E02D6E81B8
:1003F00019950F8118850E5F1F4F809168069091A7
:100400006906E12EFF24DC01ED91FC910190F08161
:10041000E02D6E2D19958091680690916906DC019A
:10042000ED91FC910190F081E02D602F19950E0D5A
:100430001F2D111D8E81080F111DD12C8091680672
:1004400090916906DC01ED91FC910190F081E02D25
:10045000ED2CF12C2F813885E216F30660F4EC0EBA
:10046000FD1ED70119966C911995F7018185080F2A
:10047000111DD394E3CF612F199580916806909157
:100480006906DC01ED91FC910190F081E02D602F77
:10049000DF91CF911F910F91FF90EF90DF90199412
:1004A00096E0899FD0011124A555BA4F90967C9370
:1004B0006E935F9791E091969C939197E0911806C7
:1004C000F091190690911706992339F0309751F061
:1004D000811108C08091C7051994309719F05C9676
:1004E0008C91FACF08958CBD9DBD0895AF92BF92B7
:1004F000CF92DF92EF92FF920F931F93CF93DF93F0
:100500006C017B018B01040F151FEB015E01AE181E
:10051000BF08C017D10759F06991D601ED91FC9140
:100520000190F081E02DC6011995892B79F7C5015D
:10053000DF91CF911F910F91FF90EF90DF90CF90BF
:10054000BF90AF900895FC01538D448D252F30E06E
:10055000842F90E0821B930B541710F0CF960895D0
:1005600001970895FC01918D828D981761F0A28DFD
:10057000AE0FBF2FB11D5D968C91928D9F5F9F73C3
:10058000928F90E008958FEF9FEF0895FC01918D79
:10059000828D981731F0828DE80FF11D858D90E0E6
:1005A00008958FEF9FEF0895FC01918D228D892F83
:1005B00090E0805C9F4F821B91098F73992708956B
:1005C00082E095E00E94D40221E0892B09F420E02A
:1005D000822F0895FC01A48DA80FB92FB11DA35A35
:1005E000BF4F2C91848D90E001968F739927848F53
:1005F000A689B7892C93A089B1898C918370806476
:100600008C93938D848D981306C00288F389E02D16
:1006100080818F7D80830895EF92FF920F931F93C7
:10062000CF93DF93EC0181E0888F9B8D8C8D9813A5
:100630001AC0E889F989808185FF15C09FB7F894B1
:10064000EE89FF896083E889F989808183708064FD
:1006500080839FBF81E090E0DF91CF911F910F9148
:10066000FF90EF900895F62E0B8D10E00F5F1F4F57
:100670000F731127E02E8C8D8E110CC00FB607FC66
:10068000FACFE889F989808185FFF5CFCE010E94F4
:10069000EA02F1CFEB8DEC0FFD2FF11DE35AFF4F76
:1006A000F0829FB7F8940B8FEA89FB898081806282
:1006B000CFCFCF93DF93EC01888D8823B9F0AA893F
:1006C000BB89E889F9898C9185FD03C0808186FD0D
:1006D0000DC00FB607FCF7CF8C9185FFF2CF80815C
:1006E00085FFEDCFCE010E94EA02E9CFDF91CF91E5
:1006F000089580E090E0892B29F00E94E0028111AA
:100700000E94000080E090E0892B49F080E090E0BA
:10071000892B29F00E94000081110E94000080E0D6
:1007200090E0892B49F080E090E0892B29F00E942D
:10073000000081110E94000080E090E0892B49F0C8
:1007400080E090E0892B29F00E94000081110C9438
:10075000000008958150823108F05AC0E82FF0E07F
:100760008827EA54FC4F8F4F0C94B217D603DA0354
:10077000C803CE03D2030804DD03E303E703ED035C
:10078000F103F503FB03FF030804030409040D044C
:10079000809180008F778093800008958091800001
:1007A0008F7DF9CF80918000877FF5CF84B58F77DB
:1007B00084BD089584B58F7DFBCF8091B0008F7785
:1007C0008093B00008958091B0008F7DF9CF809123
:1007D00090008F77809390000895809190008F7D96
:1007E000F9CF80919000877FF5CF8091A0008F771F
:1007F0008093A00008958091A0008F7DF9CF809113
:10080000A000877FF5CF809120018F778093200112
:100810000895809120018F7DF9CF80912001877FFD
:10082000F5CFCF93DF93282F30E0F901E653FE4F49
:100830008491F901E657FD4FD491F901EC5BFD4F2E
:10084000C491CC23A1F081110E94AA03EC2FF0E007
:10085000EE0FFF1FE05FFD4FA591B491EC91ED23EA
:1008600081E090E009F480E0DF91CF91089580E08D
:1008700090E0FACF862F0C9411041F93CF93DF934F
:10088000282F30E0F901E653FE4F8491F901E65735
:10089000FD4FD491F901EC5BFD4FC491CC23A9F03D
:1008A000162F81110E94AA03EC2FF0E0EE0FFF1F1C
:1008B000E65DFD4FA591B4918FB7F894EC911111BD
:1008C00008C0D095DE23DC938FBFDF91CF911F91BD
:1008D0000895DE2BF8CF862F642F0C943D04CF9320
:1008E000DF9390E0FC01E657FD4F24918C5B9D4F18
:1008F000FC0184918823C9F090E0880F991FFC01C6
:10090000E055FE4FA591B491FC01E65DFD4FC59108
:10091000D49161110DC09FB7F8948C9120958223DA
:100920008C938881282328839FBFDF91CF910895DE
:10093000623051F49FB7F8943C91822F80958323C5
:100940008C93E8812E2BEFCF8FB7F894EC912E2B60
:100950002C938FBFEACF862F642F0C946F043FB780
:10096000F8948091F6049091F704A091F804B09166
:10097000F90426B5A89B05C02F3F19F00196A11DCB
:10098000B11D3FBFBA2FA92F982F8827BC01CD01D9
:10099000620F711D811D911D42E0660F771F881F38
:1009A000991F4A95D1F708958F929F92AF92BF9267
:1009B000CF92DF92EF92FF924B015C010E94AF0455
:1009C0006B017C010E94AF046C197D098E099F099F
:1009D000683E734081059105A8F321E0821A9108D1
:1009E000A108B10888EEC80E83E0D81EE11CF11CF6
:1009F00081149104A104B10429F7FF90EF90DF90D6
:100A0000CF90BF90AF909F908F900895EF92FF92FC
:100A10000F931F93CF93DF93EC01F12CE12C10E0A7
:100A200000E08091680690916906DC01ED91FC91EF
:100A30000084F185E02D1995892B99F461E070E02F
:100A400080E090E00E94D404BFEFEB1AFB0A88EE2E
:100A5000E81683E0F80628F38FEF3BC002E010E0D1
:100A6000E0CF8091680690916906DC01ED91FC91E0
:100A70000284F385E02D1995982F0930110508F0AF
:100A80003FC0F8018827E85BFA4F8F4F0C94B217EC
:100A900051055F05700570057005700575057705D2
:100AA0007A059F3E09F0BDCF18829983C80101964F
:100AB000065F1F4F0034110558F48C01B2CF288116
:100AC0003981292B3983288321303F4E09F4C6CF41
:100AD0008EEFDF91CF911F910F91FF90EF900895CE
:100AE000FE01E00FF11F9083E1CF9E83DFCF1F82D5
:100AF0009887DCCF2F813885292B38872F83D6CF55
:100B0000FE01E00FF11F80832F813885C80108970F
:100B10008217930759F680E0DCCF2FB7F8946091E5
:100B2000F2047091F3048091F4049091F5042FBFC6
:100B300008950F931F93CF93DF93C82FD62F86E08E
:100B4000C89FF0011124E555FA4F11A2878D90A19D
:100B500081309105F1F058F082309105F1F1039761
:100B600009F440C0DF91CF911F910F910895662342
:100B7000C9F361E070E08C2F0E9450020E948D0545
:100B8000609303067093040680930506909306060F
:100B9000E9CF0E948D050091030610910406209173
:100BA000050630910606AB01BC01401B510B620BE0
:100BB000730B8091150690911606B0E0A0E08417A3
:100BC0009507A607B70748F462E070E08C2FDF9125
:100BD000CF911F910F910C94500263E070E0D111FE
:100BE000C1CFF4CF70E060E0F1CF0895BC016E5F3B
:100BF0007F4FDC01ED91FC910190F081E02D40E010
:100C0000199591E0811190E0892F089508958EBD86
:100C100000000DB407FEFDCF8EB50895DF92EF9270
:100C2000FF920F931F93CF93DF937C01062FD42E57
:100C3000152F80E590E00E94730260E0F701868541
:100C40000E943D0482E10E940706CD2DD12F0C0F9A
:100C50001D2F111DC017D10721F089910E94070691
:100C6000F9CF61E0F7018685DF91CF911F910F9158
:100C7000FF90EF90DF900C943D041F93CF93DF9390
:100C8000EC01162F80E590E00E94730260E08E85F3
:100C90000E943D04812F80680E94070680E00E9428
:100CA0000706182F61E08E850E943D04812FDF9199
:100CB000CF911F9108950F931F93CF93DF93EC0172
:100CC000062F142F80E590E00E94730260E08E856D
:100CD0000E943D04802F0E940706812F0E94070674
:100CE00061E08E85DF91CF911F910F910C943D04AF
:100CF000CF92DF92EF92FF920F931F93CF93DF93E8
:100D0000EC016B01F42E890140E062E00E945B0679
:100D100044E06AE0CE010E945B0640E864E1CE0157
:100D20000E945B06A6016F2DCE010E940E0643E0D5
:100D300062E0CE010E945B060E948D056B017C0182
:100D400029E5C20ED11CE11CF11C6AE0CE010E9413
:100D50003D0682FF1BC040E062E0CE010E945B06C0
:100D600064E4CE010E943D06F801808362E4CE0176
:100D70000E943D06F801818380E0DF91CF911F91B1
:100D80000F91FF90EF90DF90CF9008950E948D0516
:100D90006C157D058E059F05C0F283E0EECF2F9286
:100DA0003F924F925F926F927F928F929F92AF92FB
:100DB000CF92DF92EF92FF920F931F93CF93DF9327
:100DC0001F921F92CDB7DEB74C012B01D42E3901F3
:100DD00080E0E114F10411F0F70180813C2C3294A1
:100DE00090EF3922380E40E062E0C4010E945B06B9
:100DF0004FE768E0C4010E945B0640E864E1C4017B
:100E00000E945B06A2016D2DC4010E940E06432DB7
:100E10006AE1C4010E945B064CE062E0C4010E94EA
:100E20005B066AE1C4010E943D06482F40686AE102
:100E3000C4010E945B060E948D051B012C01F4E297
:100E40002F0E311C411C511C68E0C4010E943D065C
:100E5000982F907309F0B7C080FF15C083E00F9002
:100E60000F90DF91CF911F910F91FF90EF90DF9046
:100E7000CF90AF909F908F907F906F905F904F90AA
:100E80003F902F9008950E948D056215730584058B
:100E90009505D0F2E3CF6114710409F469C001151E
:100EA000110509F465C064E1C4010E943D06382EB5
:100EB000F8018081831508F480C030823320E1F18D
:100EC00080E590E00E94730260E0F40186850E9454
:100ED0003D043A9482E90E940706CC20B1F08FEFDE
:100EE00090E09C0102C0220F331FCA94E2F769010F
:100EF00082E90E9407069C2D9095F30120819223A0
:100F00008C21982B9083CC24C39423014C0C511C2E
:100F1000C31440F482E90E940706F20181932F0175
:100F2000C394F6CF80E00E940706F201808361E05F
:100F3000F40186850E943D0468E1C4010E943D06DB
:100F40008770E114F10411F0F701808323FC37C0AE
:100F500061147104B1F10115110599F1AA2089F10B
:100F6000F8014081413031F4843029F58FEF77CF9B
:100F700080E0ECCF4230F8F081111DC042509E015C
:100F80002F5F3F4FB301C4010E947806811167CFE4
:100F9000F8019081690E711CF301329720819981CB
:100FA000291309C0F1E06F1A7108F30120819A81B9
:100FB000291709F454CF87E052CF84E050CF82E064
:100FC0004ECF80E04CCF6CE0C4010E943D06282E3D
:100FD000837109F460CF81E042CF8F929F92AF92EC
:100FE000CF92EF92FF920F931F93CF93DF9300D096
:100FF0001F921F92CDB7DEB74C0182E08D8340E097
:1010000064E2C4010E945B0640E066E2C4010E9403
:101010005B0646E268E4C4010E945B0686E28B83BD
:101020008D818230D8F16CE1C4010E943D06482FC9
:101030004F776CE1C4010E945B0687E08C83A12C92
:10104000C12CCE0104967C018E010B5F1F4F9E01C7
:101050002F5F3F4F41E0BE016D5F7F4FC4010E9493
:10106000CF06982F811117C08D818230B9F48C8101
:10107000811114C081E00F900F900F900F900F908E
:10108000DF91CF911F910F91FF90EF90CF90AF9094
:101090009F908F90089581E0923069F380E0EBCFCC
:1010A0002F923F924F925F926F927F928F929F9278
:1010B000AF92BF92CF92DF92EF92FF920F931F9366
:1010C000CF93DF93CDB7DEB72D970FB6F894DEBF81
:1010D0000FBECDBF16E0413508F04AC1342E3B01AA
:1010E0004C016CE10E943D06482F4F776CE1C40132
:1010F0000E945B0683E98983332029F081E0F301B4
:101100009081953008F480E022242394B12C9B2D0B
:10111000990F990F990FD32CD91AD7FCD12C32E003
:10112000882319F098E89B8333E021E09D2D977088
:1011300009F420E09D2D959595959595290FC9F079
:1011400094E0811193E0291708F4922FEB2DF0E041
:101150003196E60DF71D232F4191A1E0B0E0AC0FD1
:10116000BD1FA20FB11D4C932F5F422F431B491788
:1011700098F3882311F0F8E0DF0E8FE18D150CF065
:1011800082C090E79A838B819C8189279D818927E2
:101190009E8189278F839E01285F3F4F47E0BE01D4
:1011A0006F5F7F4FC4010E947806182F8111E0C045
:1011B0001A86E3E0EB87DC86CE0107962C0199E0E6
:1011C0009D87CA844C2D4295407F4C0D6AE1C40135
:1011D0000E945B06A12CCE010A967C018E01055F60
:1011E0001F4F92014D85BE016F5F7F4FC4010E946A
:1011F000CF06182F823009F065C06CE1C4010E944F
:101200003D0685FDB5C08F7109F480E2282F30E0DE
:101210004D2DDD0C550B421753070CF09DC0D82EF9
:10122000E82FE595E595E595EF5F982F977081E0BC
:1012300009F480E0E80F81E090E08C0F9D1F8E0F95
:10124000911DFC01215031092770332781E090E086
:1012500002C0880F991F2A95E2F79C018081822B9A
:1012600080838BCF85E98983332031F081E0F301DE
:101270009081983008F04BCF80E049CF87E989838F
:1012800026E0B22EF9CF9D2D97709A878D2D8595EA
:10129000859585958E5F282F2295207F290F2A839B
:1012A00021E0911101C020E0280F2D8744244394B0
:1012B000512C4C0E5D1E480E511CE9E0E81BEB87DB
:1012C000DC867FCF811154C080E2D82E9C8590327D
:1012D0000CF457CF8B81883809F040C083E093E04D
:1012E000EB2DF0E03196E60DF71D980FA1E0B0E090
:1012F000AC0FBD1FA80FB11D2C9121938F5F8913D7
:10130000F5CFBB84E3E0BE124DC08A8581114AC08F
:101310009E012D5F3F4F41E0B201C4010E9478065B
:10132000182F811125C09B81F201818198133CC047
:101330009C818281981338C0808182FF12C02394DF
:10134000F2E02F1609F48ECF83E0281609F496CF29
:1013500091E0291609F4CECE15E00AC082E094E0AF
:10136000BFCFF3018387822D880F820D8F5F80832B
:10137000812F2D960FB6F894DEBF0FBECDBFDF9143
:10138000CF911F910F91FF90EF90DF90CF90BF9082
:10139000AF909F908F907F906F905F904F903F9015
:1013A0002F90089511E0E4CF17E0E2CF1F93CF9381
:1013B000DF93C1E0C0935D04882399F1D091B80018
:1013C0001091BA008091BC008A7B8093BC0060E0E1
:1013D00084E10E943D0460E085E10E943D0410929A
:1013E000C704C093C6041092A10461E084E10E9486
:1013F0003D0461E085E10E943D048091B9008E7F4B
:101400008093B9008091B9008D7F8093B90088E402
:101410008093B80085E48093BC001093BA00D09309
:10142000B800DF91CF911F91089520917E04260F7F
:101430003327331F21323105ECF42091C704FC011E
:1014400090E080E0243069F082E00895A0917E046D
:101450002191AC01425A5B4FA40FB52FB11D2C93C3
:101460000196861798F380917E04680F60937E043E
:1014700080E0089581E0089508958FEF9FEF08952B
:101480008FEF9FEF089580915C0490E09195819596
:1014900091090895CF92DF92EF92FF920F931F93DD
:1014A000CF93DF937C01CB018A012091CD042223CD
:1014B00089F0EB016B01C40ED51ECC15DD0569F07A
:1014C0006991D701ED91FC910190F081E02DC70168
:1014D0001995F3CF642F0E94150AC801DF91CF91AF
:1014E0001F910F91FF90EF90DF90CF900895CF93D1
:1014F000DF931F92CDB7DEB769832091CD042223FD
:10150000F9F02091F004203258F021E030E0FC01A5
:101510003383228390E080E00F90DF91CF91089594
:101520008091CE04E82FF0E0E153FB4F9981908346
:101530008F5F8093CE048093F00481E090E0ECCF45
:1015400061E0CE0101960E94150AF7CFCF92DF929B
:10155000EF92FF920F931F93CF93DF93FC01C4810F
:1015600021E02093CD04C093EF041092CE0410929A
:10157000F0048385682B8FE995E00E94770AD0916B
:10158000F004D13208F092C00E94AF046B017C01DC
:101590008091C704811165C082E08093C70481E017
:1015A0008093C6048FEF8093C5041092C404D09337
:1015B000C304AFECB4E0E3EAF4E080E0D81385C004
:1015C0001092A2048091A204CC0FC82BC093A20455
:1015D0008091A104813009F07CC01092A1040E9486
:1015E000AF046B017C018091A2048093BB008091C9
:1015F000C9049091CA04A091CB04B091CC04892B6A
:101600008A2B8B2B99F00E94AF040091C904109192
:10161000CA042091CB043091CC046C197D098E0949
:101620009F090617170728073907E0F18091BC00CA
:1016300083FDD9CF85EC8093BC000E94AF046B0181
:101640007C018091C704823009F445C08091C504B3
:101650008F3F61F18091C504803241F18091C504D2
:1016600025C08091C9049091CA04A091CB04B09187
:10167000CC04892B8A2B8B2B09F48ACF0E94AF04D0
:101680000091C9041091CA042091CB043091CC047C
:101690006C197D098E099F09061717072807390756
:1016A00008F076CF8091C8040E94D6091092CE042B
:1016B0001092F0041092CD04DF91CF911F910F9101
:1016C000FF90EF90DF90CF9008959D9191938F5F61
:1016D00075CF85EEB0CF8091C9049091CA04A091D6
:1016E000CB04B091CC04892B8A2B8B2B09F4A9CF86
:1016F0000E94AF040091C9041091CA042091CB0448
:101700003091CC046C197D098E099F0906171707C3
:101710002807390708F095CFC5CF2091FC043091F8
:10172000FD042817390771F49091FA048091FB04A5
:10173000981741F0E091FA04F0E0E45EFB4F8081FD
:1017400090E008958FEF9FEF0895EF92FF920F932F
:101750001F93CF93DF93DC015C96ED90FC905D9737
:10176000E114F10479F481E090E013969C938E9358
:10177000129790E080E0DF91CF911F910F91FF9041
:10178000EF9008955196ED91FC91529750968C915F
:101790005097982F90950FB75E962C915E97122FC9
:1017A000127021FD6095F8942081112319F1282BE6
:1017B0002083E7012197F1F728E0462F50E03081A0
:1017C00060FF1AC0382B3083E7012197F1F7BA0187
:1017D00075956795215089F7112381F080818923C0
:1017E00080830FBF5C968D919C910197F1F781E00A
:1017F00090E0C1CF2923DCCF3923E5CF9081892B1D
:10180000EFCF2091FC043091FD042817390771F4C3
:101810008091FB042091FA0490E0805C9F4F821B32
:10182000910960E470E00E947C17089590E080E0E8
:1018300008952091FC043091FD0428173907B9F46C
:101840009091FA048091FB04981789F0E091FA04D2
:10185000F0E0E45EFB4F80812091FA0430E02F5FDE
:101860003F4F2F7333272093FA0490E008958FEFB2
:101870009FEF089590E080E008950F931F93CF931A
:101880008C01C62F0E94A60A6C2F6460C8010E94BA
:10189000A60A6C2F6B7FC8010E94A60A83EC90E019
:1018A0000197F1F7CF911F910F9108950F931F9317
:1018B000CF93DF938C01D62FC42F607F642B0E94BF
:1018C0003D0C80E1D89FB00111246C2BC801DF9141
:1018D000CF911F910F910C943D0C40E061E08AE1A3
:1018E00096E00E94560C8BE39FE10197F1F7089573
:1018F000CF93DF9300D000D01F921F92CDB7DEB7F9
:1019000098E0EAE2F2E0DE01119601900D929A95DC
:10191000E1F790912206961708F46FEF262F30E03A
:10192000220F331F41E050E04C0F5D1F240F351F85
:10193000F9016081680F606840E08AE196E02896CE
:101940000FB6F894DEBF0FBECDBFDF91CF910C94E0
:10195000560C41E00E94560C81E090E00895FB0196
:1019600001900020E9F73197AF01461B570BDC01CE
:10197000ED91FC910280F381E02D199460E083E009
:101980000E943D0461E084E00E943D040E946D0CD1
:101990006EE872E08AE196E00E94AF0C60ED77E0BD
:1019A00080E090E00C94D40461E083E00E943D0468
:1019B00060E084E00E943D040E946D0C6AE972E0E0
:1019C0008AE196E00E94AF0C68E873E180E090E065
:1019D0000C94D404FC0180819181009711F00C9447
:1019E0006A1808950F931F93CF93DF93EC018881BA
:1019F0009981009759F02A813B812617370730F0EB
:101A000081E0DF91CF911F910F9108958B016F5F5E
:101A10007F4F0E94F318009759F0998388831B83A6
:101A20000A832C813D81232B59F7FC011082E8CFDA
:101A300080E0E7CFEF92FF920F931F93CF93DF9356
:101A40006115710541F480E0DF91CF911F910F91F5
:101A5000FF90EF90089541155105B1F07B01EC0125
:101A60000C811D81040F151FB8010E94F20C882300
:101A700051F3288139818C819D81B701820F931F99
:101A80000E94EE191D830C8381E0DECFEF92FF925E
:101A90000F931F93CF93DF93EC017B018A01BA016F
:101AA0000E94F20C28813981811114C02115310561
:101AB00019F0C9010E946A18198218821D821C82BD
:101AC0001B821A82CE01DF91CF911F910F91FF905F
:101AD000EF9008951D830C83B701C9010E94EE1990
:101AE000F1CF85ED8093BC008091C9049091CA0428
:101AF000A091CB04B091CC040796A11DB11D23E0A9
:101B0000B695A795979587952A95D1F72091BC0012
:101B100024FD03C01092C70408954091C904509158
:101B2000CA046091CB047091CC04452B462B472B03
:101B300069F30097A105B10541F025E32A95F1F776
:101B400000000197A109B109E1CF8091C8040C946C
:101B5000D6091F920F920FB60F9211240BB60F9257
:101B60002F933F934F935F936F937F938F939F93A5
:101B7000AF93BF93EF93FF9382E095E00E94EA0258
:101B8000FF91EF91BF91AF919F918F917F916F9155
:101B90005F914F913F912F910F900BBE0F900FBE11
:101BA0000F901F9018951F920F920FB60F9211244D
:101BB0000BB60F922F938F939F93EF93FF93E09128
:101BC0001205F09113058081E0911805F091190537
:101BD00082FD1DC0908180911B058F5F8F732091C6
:101BE0001C05821741F0E0911B05F0E0EE5FFA4F13
:101BF000958F80931B05FF91EF919F918F912F916E
:101C00000F900BBE0F900FBE0F901F901895808104
:101C1000F2CF1F920F920FB60F9211242F933F9382
:101C20008F939F93AF93BF938091F2049091F304AD
:101C3000A091F404B091F5043091F10423E0230F56
:101C40002D3758F50196A11DB11D2093F104809305
:101C5000F2049093F304A093F404B093F5048091FC
:101C6000F6049091F704A091F804B091F90401965C
:101C7000A11DB11D8093F6049093F704A093F8047E
:101C8000B093F904BF91AF919F918F913F912F91A4
:101C90000F900FBE0F901F90189526E8230F029605
:101CA000A11DB11DD2CF1F920F920FB60F9211241A
:101CB0000BB60F922F933F934F935F936F937F9346
:101CC0008F939F93AF93BF93EF93FF938091B9004E
:101CD000887F803609F44DC008F040C0883209F48E
:101CE000A7C028F5803109F49BC0C8F4882309F403
:101CF000F7C0883009F494C0FF91EF91BF91AF9184
:101D00009F918F917F916F915F914F913F912F9113
:101D10000F900BBE0F900FBE0F901F90189588313B
:101D200009F486C0803241F78093C50414C0803422
:101D300009F49BC040F48033B9F38833E9F680930B
:101D4000C50485ECAEC0803509F483C0883509F43C
:101D500094C0883489F60E94710DCECF883909F479
:101D60008AC038F5883729F050F4883611F080376A
:101D700019F683E08093C7041092A00455C08838F8
:101D800009F479C0803919F0803809F0B5CF809115
:101D9000A004803208F06FC0E091A00481E08E0FB3
:101DA0008093A0048091BB00F0E0E058FB4F80835B
:101DB0003BC0803B39F0D0F4803A09F477C0883AD0
:101DC00009F09ACF84E08093C70410927F041092A8
:101DD0007E04F0E0E0E0199580917E0481110FC04F
:101DE00081E080937E0410925E0409C0803C09F477
:101DF000A8CF883C09F4A5CF883B09F07DCFE091BE
:101E00007F0481E08E0F80937F04F0E0E25AFB4F65
:101E100080818093BB0090917F0480917E0429C0D3
:101E20008091A2048093BB0085EC8093BC0064CFBA
:101E30009091C4048091C304981758F5E091C404AC
:101E400081E08E0F8093C404F0E0ED55FB4F80815C
:101E5000E9CFE091C40481E08E0F8093C4048091A7
:101E6000BB00F0E0ED55FB4F80839091C40480915E
:101E7000C3049817C8F285E8D8CFE091C40481E084
:101E80008E0F8093C4048091BB00F0E0ED55FB4FB2
:101E900080838091C60481115ECF81E08093A1048C
:101EA00084EA8093BC001092C70426CF85EC80930F
:101EB000BC001092C7048091A004803230F4E091FD
:101EC000A004F0E0E058FB4F10826091A00470E0A5
:101ED00080E894E0F0E0E0E019951092A0040CCFC7
:101EE0001092C50438CF1F920F920FB60F92112493
:101EF0000BB60F922F933F934F935F936F937F9304
:101F00008F939F93AF93BF93EF93FF93E091FC0464
:101F1000F091FD04309749F0A685B7858585968DAB
:101F200091FF16C09C918923B1F4FF91EF91BF916D
:101F3000AF919F918F917F916F915F914F913F9161
:101F40002F910F900BBE0F900FBE0F901F90189502
:101F50009C91892351F7A389B4899C9185898095A7
:101F600089238C93868997890197F1F7608D718D0C
:101F7000A685B785558538E020E0CB010197F1F7BC
:101F8000822F90E095958795282F4C91452309F055
:101F90002068315091F7868D81FD20958091FB045A
:101FA00090E001968F7399273091FA04381799F0D1
:101FB000A091FB04B0E0A45EBB4F2C938093FB0484
:101FC000828D938D0197F1F7A389B4898C919589BE
:101FD000892B8C93AACF868D8160868FF1CF10924A
:101FE00005051092040588EE93E0A0E0B0E0809330
:101FF000060590930705A0930805B09309052CE307
:1020000032E0309303052093020525EC30E0309355
:102010000F0520930E0524EC30E03093110520933A
:10202000100520EC30E0309313052093120521ECCD
:1020300030E0309315052093140522EC30E0309306
:1020400017052093160526EC30E0309319052093F0
:10205000180510921B0510921C0510921D05109278
:102060001E051092A2051092A1058093A3059093DE
:10207000A405A093A505B093A6052EE432E0309305
:10208000A00520939F051092710610927006809310
:10209000720690937306A0937406B093750680E859
:1020A00092E090936F0680936E06109285061092D0
:1020B0008406109287061092860610928906109266
:1020C000880610928B0610928A0660918C066E7FAD
:1020D0006D7F60938C066695617081E068278BE068
:1020E0000E943D0461E08BE00E946F04E5E9F2E0AC
:1020F000E491E0937E06EFE4F2E0E491F0E0EE0F8D
:10210000FF1FE65DFD4F859194919093800680932B
:102110007F0660E08AE00E946F0480918C0681FD5A
:1021200004C061E08AE00E943D048EE696E02AE069
:1021300020937A06E4E9F2E0E491E0937B06EEE492
:10214000F2E0E491F0E0EE0FFF1FE05FFD4F25911C
:10215000349130937D0620937C0610923D061092B8
:102160003C0610923F0610923E0620E430E0309389
:1021700041062093400610924306109242064FEF0C
:102180005FEFBA01409344065093450660934606BC
:1021900070934706309349062093480620E031EEBD
:1021A00030934B0620934A0610924C0610924D062F
:1021B00010924E0610924F064093500650935106CF
:1021C000609352067093530610926D0610926C063F
:1021D00090936B0680936A069093690680936806D5
:1021E00086E792E0909327068093260685E3809306
:1021F000340685E08093350610921D0610921C0669
:102200008AE692E090931B0680931A0687E28093F9
:102210001E0680E18093230682E0809324061092BC
:1022200025061092AD051092B1051092B0051092DE
:10223000B20580E692E09093AC058093AB05E7ECA5
:10224000F5E083E096E010821482138215823696C0
:102250008E179F07C1F780E192E090930E0680935E
:102260000D068CE092E09093100680930F0684E0B8
:10227000809311068093120684E192E090930C06FD
:1022800080930B068AE090E09093140680931306E7
:1022900084EF91E09093160680931506109219062C
:1022A000109218061092070610920806109209065E
:1022B00010920A06109217060895CF93DF93CDB7B8
:1022C000DEB7C755D1090FB6F894DEBF0FBECDBF3C
:1022D000789484B5826084BD84B5816084BD85B501
:1022E000826085BD85B5816085BD80916E0081600D
:1022F00080936E00109281008091810082608093B3
:1023000081008091810081608093810080918000B4
:102310008160809380008091B10084608093B100DF
:102320008091B00081608093B000809191008260C4
:1023300080939100809191008160809391008091C1
:1023400090008160809390008091A10082608093D2
:10235000A1008091A10081608093A1008091A000E4
:1023600081608093A000809121018260809321018F
:102370008091210181608093210180912001816001
:102380008093200180917A00846080937A0080910C
:102390007A00826080937A0080917A0081608093D5
:1023A0007A0080917A00806880937A001092C10050
:1023B00062E086E30E946F0462E088E30E946F049B
:1023C00062E089E30E946F0462E087E30E946F0489
:1023D00062E08EE30E946F0461E083E00E946F047C
:1023E00061E084E00E946F0480911F068860809302
:1023F0001F06F2E0FF2EF092220662E370E080E01A
:1024000090E00E94D404609125068AE196E00E9443
:10241000A60A68EE73E080E090E00E94D40460E3D6
:102420008AE196E00E943D0C0BE416E4C801019796
:10243000F1F760E38AE196E00E943D0CC801019744
:10244000F1F760E38AE196E00E943D0C83E592E0BB
:102450000197F1F760E28AE196E00E943D0C6091FD
:102460001F06606240E08AE196E00E94560C84E01C
:102470008093200640E06CE08AE196E00E94560CD2
:102480000E946D0CF092210640E066E08AE196E041
:102490000E94560C40E062E08AE196E00E94560CF1
:1024A0008BE39FE10197F1F768EE73E080E090E045
:1024B0000E94D404E0916C06F0916D06309739F1DA
:1024C000A089B189FC92A089B1891C92A485B585A7
:1024D0001C92A685B78580E18C93108EA489B5895E
:1024E00086E08C93A289B3898C9180618C93A289B8
:1024F000B3898C9188608C93A289B3898C91806810
:102500008C930288F389E02D80818F7D8083E09118
:102510006A06F0916B06309709F499C0138E128EFB
:10252000118E108E178A168A82E490E0958F848F20
:10253000848596EF980F943048F02EEC280F2430C5
:1025400028F022EC280F283008F055C02FE030E0AA
:10255000378B268B20E430E0318F208F27E230E06C
:10256000338F228F943050F02EEC280F243030F02F
:1025700022EC280FB0E0A0E0283010F4A8E6B0E08C
:102580002C91943028F032EC380F383008F416C211
:1025900031E0232B943048F09EEC980F943028F0D3
:1025A0008E53B0E0A0E0883010F4A8E6B0E02C93A1
:1025B000248536EF320F343008F402C28EEC820FDD
:1025C000843008F4FDC182EC820F883008F0FBC132
:1025D0008DE690E0948B838B343008F0F7C1265061
:1025E000330B81E001C0880F2A95EAF7858B848D33
:1025F000958D0197F1F7828D938D892B41F1409153
:10260000FC045091FD04E417F50709F1411551054B
:1026100069F0DA0153962D913C91D9019C91DA0130
:1026200055968C9180958923D9018C93868D8E7FC8
:10263000868F1092FB041092FA04F093FD04E0934D
:10264000FC04A389B4898C919589892B8C93E091A2
:102650001205F091130582E08083E0910E05F09160
:102660000F051082E0911005F09111058FEC808329
:1026700010921A05E0911605F091170586E0808307
:10268000E0911405F0911505808180618083E091CF
:102690001405F0911505808188608083E091140510
:1026A000F0911505808180688083E0911405F09198
:1026B000150580818F7D808360E080E00E94780C2A
:1026C0006BEA72E08AE196E00E94AF0C61E080E084
:1026D0000E94780C6FEB72E08AE196E00E94AF0CEA
:1026E00060ED77E080E090E00E94D4040E946D0CE1
:1026F000412C512C320143940E946D0C60E080E02B
:102700000E94780C6EEC72E08AE196E00E94AF0CB9
:102710000E946D0C62EE72E08AE196E00E94AF0CBE
:1027200060ED77E080E090E00E94D404EE24E39432
:102730007FEEF72EFA82E982CC24C394CF8281E027
:1027400090E099878887DD24DA94DB82DC82DD8261
:10275000DE82CA868E010F5F1F4FC8010E949D0155
:10276000C8010E94060581117AC08F81873009F067
:1027700076C08A85811173C0FA82E982CF8282E0B5
:1027800090E099878887DB82DC82DD82DE828A871F
:10279000CB86C8010E949D01C8010E9406058111D7
:1027A0005EC08F81873009F05AC08A85811157C079
:1027B00086E0E2E3F2E0DE01A65BBF4F01900D92FE
:1027C0008A95E1F7FA82E982CF8286E090E09987E4
:1027D0008887DB82DC82DD82DE82FE01E65BFF4FE2
:1027E000DE011A9601900D928A95E1F7C8010E94C8
:1027F0009D01C8010E940605811119C08F81873093
:10280000B1F48B859C859827892798279093370664
:10281000809336068D859E859827892798279093E3
:102820003906809338068A85882309F4E4C00E941B
:102830006D0C6FEE72E08AE196E00E94AF0C61E0F1
:1028400080E00E94780C60E073E08AE196E00E94EC
:10285000AF0C60ED77E080E090E00E94D4040E942D
:102860006D0C6FE273E08AE196E00E94AF0C0E946B
:102870006D0C61E573E08AE196E00E94AF0C60EDBB
:1028800077E080E090E00E94D4040E946D0C64E642
:1028900073E08AE196E00E94AF0C60ED77E080E0A3
:1028A00090E00E94D40486E296E00E94ED0788231F
:1028B00009F489C186E296E00E94F605D82E8823A5
:1028C00009F481C162961FAE1EAE629764961FAE78
:1028D0001EAE649766961FAE1EAE669750E040E04F
:1028E0006AEA72E0CE01805B9F4F0E94460DC12CC8
:1028F00080912806C81608F0D2C08C2D90E09C016B
:102900002A5D394F7901D90113968C9166EA72E0FC
:10291000803110F069EA72E01A8219821C821B82EF
:102920001E821D82FB0101900020E9F73197AF0163
:10293000461B570BC8010E94460D4D815E8169817F
:102940007A81CE01805B9F4F0E941A0DC8010E94C0
:10295000EA0CF70183812C961FAE1EAE2C972E96A3
:102960001FAE1EAE2E9760961FAE1EAE609740E162
:10297000B80190E00E945217F80101900020E9F799
:102980003197AF01401B510BB801CE01865B9F4FC1
:102990000E94460D60964EAD5FAD60972C966EAD71
:1029A0007FAD2C97CE01805B9F4F0E941A0DCE0108
:1029B000865B9F4F0E94EA0CC3949ACF34E0E9CD26
:1029C0008BE690E007CE90E080E004CE88E02233F2
:1029D00009F40CCE84E0233309F408CE82E02433DA
:1029E00009F404CE82EC820F883018F42E53330B96
:1029F000F8CD81E0FBCD6AE073E082E095E00E94D3
:102A0000AF0C209136063091370650E040E019A215
:102A10007E01B1E2EB0EF11C6AE0862E912CA12C16
:102A2000B12CCA01B901A50194010E949017605D03
:102A3000F70162937F01211531054105510589F7A1
:102A4000309761F001900020E9F73197AF014E19FE
:102A50005F09B70182E095E00E9476028091360618
:102A60009091370697FDFBCE0E946D0C65E173E0F7
:102A70008AE196E00E94AF0C0E94D40C68E873E1F2
:102A800080E090E00E94D4040E94BE0C60ED77E0EC
:102A900080E090E00E94D4040E9479032DCE6296DB
:102AA0000EAD1FAD62970115110571F0D8018D9122
:102AB0008D01882349F0082E000C990B0E94D4192F
:102AC000F80131978083F2CF66968EAD9FAD669701
:102AD000892B71F4809100028823A1F00E946D0C73
:102AE00066E873E08AE196E00E94AF0CD12C12C038
:102AF00060E072E062968EAD9FAD62970E94E5192C
:102B0000892B61F70E946D0C63E773E08AE196E020
:102B10000E94AF0CCE01805B9F4F0E94EA0CD11047
:102B2000ABCF0E946D0C67EB73E08AE196E00E94E8
:102B3000AF0C60ED77E080E090E00E94D4040E944A
:102B40006D0C63EC73E08AE196E00E94AF0CEEEF4F
:102B5000F4E06896FFAFEEAF6897812C22242394AF
:102B6000F4E08F1609F452C1209217060E948D05D9
:102B700000910706109108062091090630910A0677
:102B8000AB01BC01401B510B620B730B8091130610
:102B900090911406B0E0A0E084179507A607B70748
:102BA00008F031C110E0809111061817A8F4E091E7
:102BB0000D06F0910E06E10FF11D62E080810E948A
:102BC0006F041F5FF0CF0E946D0C61EA73E08AE131
:102BD00096E00E94AF0CA5CF912C8091120698161A
:102BE00008F061C0E92CF12CE0910F06F09110067D
:102BF000EE0DFF1D61E080810E946F04E0910F06E1
:102C0000F0911006EE0DFF1D60E080810E943D04F2
:102C1000D301C201092C04C0880F991FAA1FBB1F32
:102C20000A94D2F75C016C01C094D094312C80914D
:102C30001106381608F5032D10E0E0910D06F0910D
:102C40000E06E00FF11F80810E9411040C5F1F4FE0
:102C5000000F111FF801E555FA4F892B41F48081CF
:102C600091818A299B29918380833394E0CF80814D
:102C700091818C219D21F7CFE0910F06F0911006F4
:102C8000EE0DFF1D61E080810E943D0480910F06E2
:102C900090911006E80EF91E60E0D7018C910E9419
:102CA0006F0493949ACF9BEAE92E95E0F92E870161
:102CB000F801878D90A1892B31F4148E2FEF3FEF0F
:102CC000368F258F11A20A5F1F4F35E0073E13078D
:102CD00079F7D12C80911106D81608F053C0C12C79
:102CE000AD2CB12CAA0CBB1CC5018D549A4F5C01B4
:102CF00020911206C21608F043C0D5016D917C9157
:102D00000C2C02C0769567950A94E2F7D29E90014A
:102D100011242C0D311DEBEAF5E080E0458D568D38
:102D20002417350709F4A0C08F5F36968A30B1F7B3
:102D300060FF24C0EBEAF5E090E080E0448D4111B3
:102D400018C0E0910B06F0910C06E20FF31F4081D2
:102D5000B6E0B89FF001B99FF00D1124E555FA4F88
:102D6000448F368F258F10A2178E61E00E9499053F
:102D700005C0019636968A30910501F7C394B8CF05
:102D8000D394A8CFD12CF70181A18111D82EF6E0E0
:102D9000EF0EF11C0E151F05B1F70E948D05609313
:102DA0000706709308068093090690930A06DD20B3
:102DB00051F18091CC05882331F18091CA05909121
:102DC000CB05019701F58091C705882309F4C8CE8A
:102DD0006896AEADBFAD68978D936896BFAFAEAF46
:102DE000689761E0882D0E94780C41E06AE28AE1F0
:102DF00096E00E94560C68EC70E080E090E00E9443
:102E0000D4048394ADCE10921706AACE0E946D0C06
:102E100063ED73E08AE196E00E94AF0C60ED77E02D
:102E200080E090E00E94D40444E050E064EE73E05F
:102E30008EEF94E00E94F519892B29F40E946D0C05
:102E400069EE73E015CE0E946D0C6EEF73E08AE1BF
:102E500096E00E94AF0C0E946D0C6BE873E08AE173
:102E600096E00E94AF0C12CE617080CF80E892E0B5
:102E700090936F0680936E068091FC049091FD0400
:102E80008E56964071F4E0918106F0918206908111
:102E9000809183068095892380831092FD0410928F
:102EA000FC040895BB27FB015527AA27880F991F0B
:102EB000AA1FA41710F0A41B83955051B9F7A05D69
:102EC000AA3308F0A95DA193009779F7B111B193E6
:102ED0001192CB010C946C17DC01FC01672F7191EE
:102EE0007723E1F7329704C07C916D9370836291F0
:102EF000AE17BF07C8F3089597FB072E16F400948A
:102F000007D077FD09D00E94BA1707FC05D03EF420
:102F1000909581959F4F0895709561957F4F089585
:102F2000A1E21A2EAA1BBB1BFD010DC0AA1FBB1FCD
:102F3000EE1FFF1FA217B307E407F50720F0A21B3F
:102F4000B30BE40BF50B661F771F881F991F1A94AC
:102F500069F760957095809590959B01AC01BD01D6
:102F6000CF010895EE0FFF1F881F8BBF0790F691CA
:102F7000E02D1994AA1BBB1B51E107C0AA1FBB1F60
:102F8000A617B70710F0A61BB70B881F991F5A95F5
:102F9000A9F780959095BC01CD0108950F931F93DB
:102FA000CF93DF938230910510F482E090E0E091BE
:102FB0008F06F091900630E020E0B0E0A0E030977E
:102FC00099F42115310509F44AC0281B390B243026
:102FD0003105D8F58A819B816115710589F1FB0165
:102FE00093838283FE0111C040815181028113814C
:102FF00048175907E0F04817590799F4109761F0FE
:1030000012960C93129713961C933296CF01DF9170
:10301000CF911F910F91089500938F061093900602
:10302000F4CF2115310551F04217530738F0A901AB
:10303000DB019A01BD01DF01F801C1CFEF01F9CF3A
:103040009093900680938F06CDCFFE01E20FF31F81
:10305000819391932250310939832883D7CF2091CE
:103060008D0630918E06232B41F42091260230915B
:10307000270230938E0620938D06209124023091F2
:1030800025022115310541F42DB73EB740912802A4
:1030900050912902241B350BE0918D06F0918E068C
:1030A000E217F307A0F42E1B3F0B2817390778F01F
:1030B000AC014E5F5F4F2417350748F04E0F5F1F7E
:1030C00050938E0640938D06819391939FCFF0E0AD
:1030D000E0E09CCFCF93DF930097E9F0FC013297BB
:1030E00013821282A0918F06B0919006ED0130E01C
:1030F00020E01097A1F420813181820F931F20914D
:103100008D0630918E062817390709F061C0F093BB
:103110008E06E0938D06DF91CF910895EA01CE17D8
:10312000DF07E8F54A815B819E0141155105B1F742
:10313000E901FB83EA8349915991C40FD51FEC172C
:10314000FD0761F4808191810296840F951FE9014A
:1031500099838883828193819B838A83F0E0E0E076
:1031600012968D919C9113970097B9F52D913C91F2
:103170001197CD010296820F931F20918D063091F9
:103180008E062817390739F6309751F510929006B8
:1031900010928F06B0938E06A0938D06BCCFD3837A
:1031A000C28340815181840F951FC817D90761F4EC
:1031B0004E5F5F4F88819981480F591F518340832B
:1031C0008A819B81938382832115310509F0B0CFD9
:1031D000F0939006E0938F069ECFFD01DC01C0CFF7
:1031E00013821282D7CF4F925F926F927F928F920B
:1031F0009F92AF92BF92CF92DF92EF92FF920F9386
:103200001F93CF93DF938C01009799F4CB01DF914B
:10321000CF911F910F91FF90EF90DF90CF90BF90D3
:10322000AF909F908F907F906F905F904F900C9495
:10323000CE17FC01E60FF71F9C0122503109E2175F
:10324000F30708F4AEC0D901CD91DC911197C617F0
:10325000D70720F1C530D10578F0CE010497861745
:10326000970750F0C61BD70B2297C193D1936D934C
:103270007C93CF010E946A18C801DF91CF911F9102
:103280000F91FF90EF90DF90CF90BF90AF909F9005
:103290008F907F906F905F904F9008955B01AC1A74
:1032A000BD0A4C018C0E9D1EA0918F06B091900618
:1032B000512C412CF12CE12C109731F580918D0689
:1032C00090918E068815990509F05CC04616570640
:1032D00008F058C08091240290912502009741F493
:1032E0008DB79EB74091280250912902841B950BFF
:1032F000E817F90708F055C0F0938E06E0938D06A5
:10330000F90171836083B8CF8D919C9111971296CA
:103310006C90129713967C901397A815B90559F5E0
:103320006C0142E0C40ED11CCA14DB0420F1AC01D4
:103330004A195B09DA011296159780F0628273824E
:1033400051834083D9016D937C93E114F10471F0B2
:10335000D7011396FC93EE9312978ECF22968C0F83
:103360009D1FF90191838083F301EFCFF0939006C5
:10337000E0938F0681CF4816590608F42C017D0191
:10338000D3019ACFCB010E94CE177C01009749F060
:10339000AE01B8010E94DC19C8010E946A188701B9
:1033A0006BCF10E000E068CF9111089581568A51EB
:1033B00008F4805285580895FB01DC0102C0019099
:1033C0000D9241505040D8F70895FB01DC018D91DA
:1033D000019080190110D9F3990B0895FB01DC01CC
:1033E00001900D920020E1F70895FB01DC014150AE
:1033F000504030F08D910190801919F40020B9F7F8
:10340000881B990B089511E0C9E6D1E000E006C0E1
:10341000802FFE010E94B2172196011DCA36D107E6
:0A34200080E00807A9F7F894FFCF39
:10342A0031392034372036342043310008090A0B59
:10343A0004050607313233413435364237383943C9
:10344A002A30234400009106800000004000140046
:10345A0054001B01000000A3000000000C037602C8
:10346A00A3025903D402B202C60200000000770A7E
:10347A004A0A3A0C3C0A430A400A3D0A0000000084
:10348A00AB046B043A0400000000A90C76023A0C63
:10349A00F505000000005008ED07F60500000000E1
:1034AA00A50B76023A0C3C0A010C190C8D0B4761EC
:1034BA00746520436C6F7365640047617465204FBF
:1034CA0070656E656400203000200053797374655E
:1034DA006D20496E697469616C697A696E6700501A
:1034EA006C6561736520576169742E2E2E00506CCD
:1034FA006163652046696E676572206F7220546148
:10350A006700506C6163652046696E6765720046A4
:10351A00696E676572204E6F7420466F756E64001F
:10352A00547279204C6174657200466F756E64201E
:10353A00494420230046696E6765727072696E7429
:10354A002041757468656E746963617465640046C8
:10355A00696E6765727072696E7420417574686508
:10356A006E7469636174696F6E204661696C656423
:10357A000046696E6765727072696E742046616989
:10358A006C6564005363616E20524649442043616E
:10359A00726400524649442041757468656E7469C4
:1035AA0063617465640052464944204175746865D4
:1035BA006E7469636174696F6E204661696C6564D3
:1035CA00004E6F205246494420436172642044658C
:1035DA007465637465640052464944204661696CA7
:1035EA00656400456E7465722050617373776F72FB
:1035FA00643A0050617373776F726420456E746524
:10360A007265640031323334004B6579706164202D
:10361A0041757468656E74696361746564004B65AD
:10362A00797061642041757468656E746963617448
:0C363A00696F6E204661696C65640000D9
:00000001FF
